:100000000C942A000C94F0010C941D020C945102E3
:100010000C9447000C9447000C9447000C94B103D7
:100020000C9447000C9447000C9447000C94470034
:100030000C9447000C9447000C9447000C94470024
:100040000C9447000C9447000C9447000C94470014
:100050000C94470011241FBECFE5D8E0DEBFCDBF12
:1000600010E0A0E6B0E0ECEDF8E002C005900D92E3
:10007000A236B107D9F710E0A2E6B0E001C01D92A8
:10008000A337B107E1F70E9449000C946C040C946B
:100090000000DF93CF93CDB7DEB70E9488020E94A5
:1000A000A4020E94A0010E945A010E9414040E940E
:1000B0008B03809160008F5F0E9446030E94F302D1
:1000C000809165008823D1F7E6E3F0E08081882FF6
:1000D00090E0887090700097F9F483E00E94290402
:1000E000E6E3F0E08081882F90E0887090700097C0
:1000F000A9F480916600882389F481E080936600EA
:100100009091600081E08927809360008091600079
:100110008F5F0E94460302C010926600E6E3F0E0A3
:100120008081882F90E0807190700097F9F483E0CF
:100130000E942904E6E3F0E08081882F90E080713E
:1001400090700097A9F480916700882389F481E07A
:100150008093670080916A008F5F80936A0080912E
:100160006A00833028F010926A0002C01092670083
:10017000E6E3F0E08081882F90E080729070009735
:1001800009F041C083E00E942904E6E3F0E08081A9
:10019000882F90E0807290700097B9F58091680088
:1001A000882399F581E08093680080916A00282F68
:1001B00030E0F901EE59FF4F80818F5FF901EE5970
:1001C000FF4F808380916A00882339F48091620018
:1001D0008C331CF01092620018C080916A0081304C
:1001E00039F4809163008C331CF0109263000DC0D1
:1001F00080916A00823049F48091640084362CF04A
:100200001092640002C010926800E6E3F0E0808182
:10021000882F90E080749070009709F048C083E0C8
:100220000E942904E6E3F0E08081882F90E080744A
:100230009070009709F042CF80916900882309F0FF
:100240003DCF81E08093690080916A00282F30E0E3
:10025000F901EE59FF4F80818150F901EE59FF4FAE
:10026000808380916A00882341F480916200882312
:1002700024F48BE38093620021CF80916A00813067
:1002800041F480916300882324F48BE3809363001E
:1002900015CF80916A00823009F010CF8091640000
:1002A00088230CF00BCF83E68093640007CF109275
:1002B000690004CFDF93CF93CDB7DEB7A1E3B0E001
:1002C000E1E3F0E08081837F8C93A2E3B0E0E2E39E
:1002D000F0E0808184608C93A7E3B0E0E7E3F0E096
:1002E00080818B7F8C93A8E3B0E0E8E3F0E080812D
:1002F00084608C93AFE5B0E0EFE5F0E0808180684A
:100300008C93A5E5B0E0E5E5F0E0808182608C9318
:10031000A5E5B0E0E5E5F0E080818C608C93A4E594
:10032000B0E0E4E5F0E080818F7B8C93ABE5B0E05A
:10033000EBE5F0E08081806E8C93CF91DF910895A2
:10034000DF93CF93CDB7DEB7A7E3B0E0E7E3F0E00C
:10035000808187788C93A8E3B0E0E8E3F0E08081C7
:1003600088678C93CF91DF910895DF93CF930F929D
:10037000CDB7DEB7E6E3F0E08081882F90E08870AB
:100380009070009719F081E0898325C0E6E3F0E0E2
:100390008081882F90E080719070009719F082E042
:1003A000898319C0E6E3F0E08081882F90E08072B5
:1003B0009070009719F083E089830DC0E6E3F0E0C8
:1003C0008081882F90E080749070009719F084E00D
:1003D000898301C0198289810F90CF91DF9108959F
:1003E0001F920F920FB60F9211248F93AF93BF936A
:1003F000EF93FF93DF93CF93CDB7DEB7AEE4B0E0DA
:10040000EEE4F0E080818C7F8C93ECE4F0E01182EC
:100410001082109265001092620010926300109298
:100420006400CF91DF91FF91EF91BF91AF918F91D8
:100430000F900FBE0F901F9018951F920F920FB63E
:100440000F9211242F933F934F935F936F937F935A
:100450008F939F93AF93BF93EF93FF93DF93CF93CC
:10046000CDB7DEB7AEE4B0E0EEE4F0E080818C7FA3
:100470008C931092650080E00E944603CF91DF913B
:10048000FF91EF91BF91AF919F918F917F916F916C
:100490005F914F913F912F910F900FBE0F901F9042
:1004A00018951F920F920FB60F9211242F933F931E
:1004B0004F935F936F937F938F939F93AF93BF936C
:1004C000EF93FF93DF93CF93CDB7DEB7AEE4B0E009
:1004D000EEE4F0E0808183608C9381E0809365009E
:1004E000809160008F5F0E944603CF91DF91FF9162
:1004F000EF91BF91AF919F918F917F916F915F919C
:100500004F913F912F910F900FBE0F901F90189514
:10051000DF93CF93CDB7DEB7AAE3B0E0EAE3F0E034
:1005200080818F638C93ABE3B0E0EBE3F0E08081FC
:100530008F638C93A4E3B0E0E4E3F0E080818F600C
:100540008C93CF91DF910895DF93CF93CDB7DEB732
:10055000A1E3B0E0E1E3F0E08081806F8C93A2E35F
:10056000B0E0E2E3F0E080818F708C93CF91DF9177
:100570000895DF93CF93CDB7DEB7809162009AE004
:10058000692F0E945304892F80936B008091620031
:100590009AE0692F0E94530480936C00809163005D
:1005A0009AE0692F0E945304892F80936D008091F7
:1005B00063009AE0692F0E94530480936E0080913B
:1005C00064009AE0692F0E945304892F80936F0082
:1005D000809164009AE0692F0E9453048093700018
:1005E000CF91DF910895DF93CF93CDB7DEB70E940F
:1005F000B9021092710042C0ABE3B0E0EBE3F0E06F
:100600008081482F80917100282F30E081E090E0B8
:1006100002C0880F991F2A95E2F7842B8C93A5E3DB
:10062000B0E0E5E3F0E08081282F207F8091710029
:10063000882F90E0FC01E559FF4F80818F70822B5D
:100640008C9383E00E942904ABE3B0E0EBE3F0E09D
:100650008081482F80917100282F30E081E090E068
:10066000022E02C0880F991F0A94E2F78095842316
:100670008C93809171008F5F8093710080917100E5
:10068000863008F4B9CFCF91DF910895DF93CF93EF
:1006900000D00F92CDB7DEB789838981282F30E053
:1006A0003B832A838A819B818130910501F12A81D4
:1006B0003B812230310561F08A819B81009729F5C9
:1006C000A2E3B0E0E2E3F0E08081806F8C931DC094
:1006D000A2E3B0E0E2E3F0E08081806C8C93A2E3DF
:1006E000B0E0E2E3F0E080818F7C8C930EC0A2E367
:1006F000B0E0E2E3F0E0808180638C93A2E3B0E0BD
:10070000E2E3F0E080818F738C930F900F900F9055
:10071000CF91DF910895DF93CF93CDB7DEB7AFE4EC
:10072000B0E0EFE4F0E0808188608C93AEE4B0E06C
:10073000EEE4F0E0808188608C93EAE4F0E089E008
:100740009DE391838083A9E5B0E0E9E5F0E0808155
:1007500080618C93ECE4F0E011821082CF91DF9104
:1007600008951F920F920FB60F9211248F93DF936B
:10077000CF93CDB7DEB780916000813031F58091A5
:1007800062008F5F80936200809162008C333CF046
:1007900010926200809163008F5F8093630080916C
:1007A00063008C333CF010926300809164008F5F93
:1007B0008093640080916400843674F1109262002A
:1007C000109263001092640027C0809162008150F3
:1007D0008093620080916200882344F48BE38093CD
:1007E0006200809163008150809363008091630078
:1007F000882344F48BE380936300809164008150EC
:100800008093640080916400882334F41092620025
:100810001092630010926400CF91DF918F910F903E
:100820000FBE0F901F901895DF93CF93CDB7DEB713
:10083000A3E5B0E0E3E5F0E080818A688C93ECE525
:10084000F0E08DE78083E2E5F0E01082CF91DF9168
:100850000895DF93CF930F92CDB7DEB789831092BF
:10086000720018C0E2E5F0E01082A8E5B0E0E8E52B
:10087000F0E0808182608C93E8E5F0E08081882F51
:1008800090E0827090700097B9F3809172008F5F52
:1008900080937200909172008981981718F30F90DD
:1008A000CF91DF91089587FB082E062687FD81955D
:1008B00067FD619505D00EF4919507FC819508952B
:1008C000991B79E004C0991F961708F0961B881FA2
:0C08D0007A95C9F780950895F894FFCF41
:0208DC00010019
:00000001FF
